:100000000C9428030C9450030C9450030C9450034C
:100010000C9450030C9450030C9450030C94500314
:100020000C9450030C9450030C9450030C94500304
:100030000C9450030C9450030C9450030C945003F4
:100040000C9489170C9450030C9457170C94311787
:100050000C9450030C9450030C9450030C945003D4
:100060000C94D3170C94500300000000003E5B4F2B
:100070005B3E3E6B4F6B3E1C3E7C3E1C183C7E3C08
:10008000181C577D571C1C5E7F5E1C00183C180016
:10009000FFE7C3E7FF0018241800FFE7DBE7FF30A6
:1000A000483A060E2629792926407F050507407F14
:1000B00005253F5A3CE73C5A7F3E1C1C08081C1C87
:1000C0003E7F14227F22145F5F005F5F06097F017D
:1000D0007F006689956A606060606094A2FFA29468
:1000E00008047E040810207E201008082A1C080836
:1000F0001C2A08081E101010100C1E0C1E0C303884
:100100003E3830060E3E0E06000000000000005F84
:1001100000000007000700147F147F14242A7F2AA0
:100120001223130864623649562050000807030062
:10013000001C2241000041221C002A1C7F1C2A08AE
:10014000083E080800807030000808080808000011
:1001500060600020100804023E5149453E00427F85
:10016000400072494949462141494D331814127FD4
:100170001027454545393C4A494931412111090774
:100180003649494936464949291E000014000000F5
:1001900040340000000814224114141414140041C7
:1001A00022140802015909063E415D594E7C121184
:1001B000127C7F494949363E414141227F414141BC
:1001C0003E7F494949417F090909013E4141517337
:1001D0007F0808087F00417F41002040413F017FA8
:1001E000081422417F404040407F021C027F7F0470
:1001F00008107F3E4141413E7F090909063E4151B9
:10020000215E7F09192946264949493203017F01A8
:10021000033F4040403F1F2040201F3F4038403FA9
:10022000631408146303047804036159494D4300BF
:100230007F4141410204081020004141417F0402F6
:10024000010204404040404000030708002054548D
:1002500078407F284444383844444428384444286B
:100260007F385454541800087E090218A4A49C78BE
:100270007F0804047800447D40002040403D007F1A
:100280001028440000417F40007C047804787C08FA
:100290000404783844444438FC18242418182424CE
:1002A00018FC7C08040408485454542404043F44B3
:1002B000243C4040207C1C2040201C3C4030403CE2
:1002C00044281028444C9090907C4464544C440042
:1002D00008364100000077000000413608000201A6
:1002E0000204023C2623263C1EA1A161123A404092
:1002F000207A38545455592155557941225454780F
:1003000042215554784020545579400C1E527212A7
:100310003955555559395454545939555454580030
:1003200000457C410002457D420001457C407D1234
:1003300011127DF0282528F07C5455450020545496
:100340007C547C0A097F4932494949323A44444441
:100350003A324A4848303A4141217A3A424020787C
:10036000009DA0A07D3D4242423D3D4040403D3C7D
:1003700024FF2424487E4943662B2FFC2F2BFF09A2
:1003800029F620C0887E0903205454794100004496
:100390007D413048484A32384040227A007A0A0A81
:1003A000727D0D19317D2629292F282629292926F4
:1003B00030484D4020380808080808080808382F39
:1003C00010C8ACBA2F102834FA00007B00000814C3
:1003D0002A142222142A14085500550055AA55AA99
:1003E00055AAFF55FF55FF000000FF00101010FF39
:1003F00000141414FF001010FF00FF1010F010F094
:10040000141414FC001414F700FF0000FF00FF1484
:1004100014F404FC141417101F10101F101F1414D0
:10042000141F00101010F0000000001F101010101A
:100430001F10101010F010000000FF10101010100E
:1004400010101010FF10000000FF140000FF00FF4C
:1004500000001F10170000FC04F4141417101714E8
:1004600014F404F40000FF00F7141414141414140A
:10047000F700F7141414171410101F101F1414147D
:10048000F4141010F010F000001F101F0000001FE7
:1004900014000000FC140000F010F01010FF10FF1A
:1004A000141414FF141010101F00000000F010FFAF
:1004B000FFFFFFFFF0F0F0F0F0FFFFFF0000000093
:1004C00000FFFF0F0F0F0F0F3844443844FC4A4A17
:1004D0004A347E02020606027E027E0263554941CC
:1004E000633844443C04407E201E2006027E020203
:1004F00099A5E7A5991C2A492A1C4C7201724C3017
:100500004A4D4D303048784830BC625A463D3E49ED
:100510004949007E0101017E2A2A2A2A2A44445F91
:10052000444440514A444040444A51400000FF0185
:1005300003E080FF000008086B6B08361236243693
:10054000060F090F060000181800000010100030F8
:1005500040FF0101001F01011E00191D1712003C80
:100560003C3C3C000000000000000000240027008C
:100570002A00000000080002010000030407000038
:1005800000000000000004E010021C0712373229AE
:100590002D29252B3900010310E110031D07062E1C
:1005A0002C292D2E2E373F0000021013800A29809F
:1005B00064022A040000007F2B040000009F0F014A
:1005C00080961180FFB103012C2DB203012C2DB3B5
:1005D00006012C2D012C2DB40107C003A20284C1F9
:1005E00001C5C2020A00C3028A2AC4028AEEC501FA
:1005F0000E20003601C83A0105496E697469616CC4
:10060000697A65640048656C6C6F212053543737F4
:10061000787820544654205465737400010204080D
:10062000102040800102040810200102040810205C
:1006300000000000250028002B000404040404042A
:100640000404020202020202030303030303EE187E
:1006500011241FBECFEFD8E0DEBFCDBF13E0A0E076
:10066000B1E0E6E6F7E402C005900D92A430B107D0
:10067000D9F724E0A4E0B3E001C01D92A436B2078C
:10068000E1F713E0C8E2D3E004C02197FE010E9425
:10069000A623C732D107C9F70E94C1190C94B12310
:1006A0000C940000AF92BF92CF92DF92EF92FF9234
:1006B0000F931F93CF93DF936C017B018B01040F8A
:1006C000151FEB015E01AE18BF08C017D10759F026
:1006D0006991D601ED91FC910190F081E02DC60168
:1006E0000995892B79F7C501DF91CF911F910F9162
:1006F000FF90EF90DF90CF90BF90AF900895FC01F6
:10070000538D448D252F30E0842F90E0821B930B76
:10071000541710F0CF96089501970895FC01918D1C
:10072000828D981761F0A28DAE0FBF2FB11D5D961F
:100730008C91928D9F5F9F73928F90E008958FEFC1
:100740009FEF0895FC01918D828D981731F0828D75
:10075000E80FF11D858D90E008958FEF9FEF0895CC
:10076000FC01918D228D892F90E0805C9F4F821B30
:1007700091098F73992708958FE793E00E94B00342
:1007800021E0892B09F420E0822F089580E090E099
:10079000892B29F00E94BC0381110C94000008955C
:1007A000FC01A48DA80FB92FB11DA35ABF4F2C91E6
:1007B000848D90E001968F739927848FA689B789DD
:1007C0002C93A089B1898C91837080648C93938DD4
:1007D000848D981306C00288F389E02D80818F7D77
:1007E00080830895EF92FF920F931F93CF93DF932F
:1007F000EC0181E0888F9B8D8C8D98131AC0E8895D
:10080000F989808185FF15C09FB7F894EE89FF892B
:100810006083E889F98980818370806480839FBFC9
:1008200081E090E0DF91CF911F910F91FF90EF90C9
:100830000895F62E0B8D10E00F5F1F4F0F731127D9
:10084000E02E8C8D8E110CC00FB607FCFACFE88914
:10085000F989808185FFF5CFCE010E94D003F1CFC9
:10086000EB8DEC0FFD2FF11DE35AFF4FF0829FB788
:10087000F8940B8FEA89FB8980818062CFCF0F9338
:100880001F93CF93DF938C01D0E0C0E0F801EC0F11
:10089000FD1F6491662341F08FE793E00E94F2030D
:1008A000892B11F02196F2CFCE01DF91CF911F91CC
:1008B0000F910895CF93DF93EC01888D8823B9F0D1
:1008C000AA89BB89E889F9898C9185FD03C080815B
:1008D00086FD0DC00FB607FCF7CF8C9185FFF2CFD8
:1008E000808185FFEDCFCE010E94D003E9CFDF915B
:1008F000CF91089590E0FC01EE58FA4F2491FC014D
:10090000E45EF94F3491FC01E65CF94FE491EE238B
:10091000C9F0222339F0233001F1A8F4213019F174
:10092000223029F1F0E0EE0FFF1FE05DF94FA591B5
:10093000B4918FB7F894EC91611126C030953E23A5
:100940003C938FBF08952730A9F02830C9F0243098
:1009500049F7809180008F7D03C0809180008F7760
:1009600080938000DFCF84B58F7784BDDBCF84B5E3
:100970008F7DFBCF8091B0008F778093B000D2CF76
:100980008091B0008F7DF9CF3E2BDACFCF93DF93EC
:1009900090E0FC01E45EF94F2491865C994FFC01E4
:1009A00084918823D1F090E0880F991FFC01E859C9
:1009B000FA4FA591B491FC01E05DF94FC591D49136
:1009C00061110EC09FB7F8948C91E22FE0958E23B1
:1009D0008C932881E223E8839FBFDF91CF91089514
:1009E0008FB7F894EC91E22BEC938FBFF6CF3FB723
:1009F000F8948091770390917803A0917903B09156
:100A00007A0326B5A89B05C02F3F19F00196A11DBA
:100A1000B11D3FBFBA2FA92F982F8827BC01CD0148
:100A2000620F711D811D911D43E0660F771F881FA6
:100A3000991F4A95D1F708958F929F92AF92BF92D6
:100A4000CF92DF92EF92FF926B017C010E94F7043C
:100A50004B015C01C114D104E104F104B9F00E941E
:100A6000F704681979098A099B09683E7340810572
:100A7000910580F321E0C21AD108E108F10888EE5F
:100A8000880E83E0981EA11CB11CE4CFFF90EF906C
:100A9000DF90CF90BF90AF909F908F90089520915E
:100AA0002C03260F3327331F21323105ECF420911C
:100AB0005003FC0190E080E0243069F082E008956A
:100AC000A0912C032191AC01445F5C4FA40FB52F82
:100AD000B11D2C930196861798F380912C03680F13
:100AE00060932C0380E0089581E0089508958FEFCE
:100AF0009FEF08958FEF9FEF08958091050390E099
:100B00009195819591090895CF93DF93CB01EA01E7
:100B1000642F0E944F05CE01DF91CF910895CF93AE
:100B2000DF931F92CDB7DEB7698361E0CE010196F6
:100B30000E944F0581E090E00F90DF91CF910895E2
:100B4000FC01A5A1B6A18C9192A589238C93A5A1A6
:100B5000B6A18C9191A5892B8C930895DC01939675
:100B6000ED91FC919497908198968C918923808344
:100B70000895DC019396ED91FC919497908197965E
:100B80008C91892B80830895DC019196ED91FC91E5
:100B90009297908196968C91892380830895DC01A9
:100BA0009196ED91FC919297908195968C91892BDD
:100BB00080830895CF92DF92EF92FF921F93CF939D
:100BC000DF93EC016A017B018DA9811123C08F2D78
:100BD0009927AA27BB278EBD0DB407FEFDCFC701FD
:100BE000AA27BB278EBD0DB407FEFDCFBB27AF2DB7
:100BF0009E2D8D2D8EBD0DB407FEFDCFCEBC0DB448
:100C000007FEFDCFDF91CF911F91FF90EF90DF9016
:100C1000CF9008958130B1F410E2CE01F7FE0FC0FD
:100C20000E94CF05CE010E94B905CE010E94AE05FB
:100C3000CC0CDD1CEE1CFF1C115079F7E3CF0E9499
:100C4000C405F0CFEF8DF8A18F2D9927AA27BB27D8
:100C50008083CE010E94A005EF8DF8A1C701AA27CD
:100C6000BB278083CE010E94A005EF8DF8A1BB2792
:100C7000AF2D9E2D8D2D8083CE010E94A005EF8D7E
:100C8000F8A1C082CE01DF91CF911F91FF90EF902C
:100C9000DF90CF900C94A005FF920F931F93CF93FA
:100CA000DF93EC018B018DA981110EC01EBD0DB427
:100CB00007FEFDCF0EBD0DB407FEFDCFDF91CF9136
:100CC0001F910F91FF9008958130B1F490E1F92EBA
:100CD000CE0117FF0EC00E94CF05CE010E94B905BC
:100CE000CE010E94AE05000F111FFA94F110F0CF53
:100CF000E5CF0E94C405F1CFEF8DF8A11083CE019E
:100D00000E94A005EF8DF8A10083CE01DF91CF9165
:100D10001F910F91FF900C94A0050F931F93CF93F9
:100D2000DF93EC01162F8DA9811109C06EBD0DB4A2
:100D300007FEFDCFDF91CF911F910F910895813074
:100D400099F408E0CE0117FF0CC00E94CF05CE0138
:100D50000E94B905110FCE010E94AE05015091F716
:100D6000E9CF0E94C405F3CFEF8DF8A16083CE01D7
:100D7000DF91CF911F910F910C94A005CF93DF933A
:100D8000EC01ED8DFE8D80819CA989238083CE01AD
:100D90000E948D06ED8DFE8D80819BA9892B80831D
:100DA000DF91CF9108958F929F92AF92BF92CF9291
:100DB000DF92EF92FF920F931F93CF93DF93EC019B
:100DC00089AD9AAD680F791F8BAD9CAD480F591F47
:100DD00021503109260F371F4901B12CA12CCB011D
:100DE000B0E0A0E0DC0199278827882A992AAA2A5E
:100DF000BB2A680181E0C81AD108C40ED51EF12CA7
:100E0000E12C70E060E0BA0155274427C42AD52AB6
:100E1000E62AF72A6AE2CE010E94BE06B501A401C5
:100E2000CE010E94DA056BE2CE010E94BE06B70138
:100E3000A601CE010E94DA056CE2CE01DF91CF91CE
:100E40001F910F91FF90EF90DF90CF90BF90AF90E8
:100E50009F908F900C94BE06FC0185A9811104C05F
:100E600091A182A19CBD8DBD08951F93CF93DF9367
:100E7000EC01162FE881F9810284F385E02D0995B4
:100E8000112371F06DADCE010E94BE06E881F9819B
:100E90000688F789E02DCE01DF91CF911F9109944B
:100EA0006EADF1CFAF92BF92CF92DF92EF92FF92F1
:100EB0000F931F93CF93DF93EC0177FD38C08885A4
:100EC0009985681779079CF557FD31C08A859B8500
:100ED0004817590764F569017A015B01E881F981D6
:100EE0000284F385E02DCE010995E881F98102A401
:100EF000F3A5E02D01E010E021E030E0A701B5010D
:100F0000CE010995B601CE010E944C06E881F98117
:100F10000688F789E02DCE01DF91CF911F910F91C7
:100F2000FF90EF90DF90CF90BF90AF900994DF914A
:100F3000CF911F910F91FF90EF90DF90CF90BF90D6
:100F4000AF9008958F929F92AF92BF92CF92DF920F
:100F5000EF92FF920F931F93CF93DF93EC01490120
:100F60005701E881F98102A4F3A5E02D09959401C8
:100F7000D8010E9488236B017C01C114D104E104D3
:100F8000F10409F47DC08DA9811115C081E0C81A52
:100F9000D108E108F1088FEFC816D806E806F80670
:100FA00009F46EC0BEBC0DB407FEFDCFAEBC0DB4DF
:100FB00007FEFDCFEBCF813099F581E0C81AD1084B
:100FC000E108F1088FEFC816D806E806F80609F41C
:100FD00057C00B2D18E0CE0107FF1CC00E94CF05A3
:100FE000CE010E94B905CE010E94AE05000F11503E
:100FF00091F70A2D18E0CE0107FF0FC00E94CF0520
:10100000CE010E94B905CE010E94AE05000F11501D
:1010100091F7D3CF0E94C405E3CF0E94C405F0CF5F
:10102000BA1016C0CC0CDD1CEE1CFF1CEF8DF8A115
:10103000B08281E0C81AD108E108F1088FEFC81624
:10104000D806E806F806E1F0CE010E94A005F1CF2F
:1010500081E0C81AD108E108F1088FEFC816D80658
:10106000E806F80669F0EF8DF8A1B082CE010E9483
:10107000A005EF8DF8A1A082CE010E94A005E8CFC7
:10108000DF91CF911F910F91FF90EF90DF90CF9064
:10109000BF90AF909F908F9008958F929F92AF9244
:1010A000BF92CF92DF92EF92FF920F931F93CF9355
:1010B000DF935C014B016A01E90177FD52C0DC015D
:1010C00018968D919C91681779070CF04AC020976B
:1010D00009F447C037FF07C0C9010196C80ED91EE1
:1010E000D195C195D109F50182859385C816D90698
:1010F000C4F5A6014C0F5D1F9A012150310937FD3F
:1011000030C0D7FE03C0EA01D12CC12C2817390703
:101110001CF0EC01CC19DD09D501ED91FC910284A4
:10112000F385E02DC501099578018E0121E030E0BD
:10113000A601B401C5010E94A207D501ED91FC9161
:101140000688F789E02DC501DF91CF911F910F919E
:10115000FF90EF90DF90CF90BF90AF909F908F90D7
:101160000994DF91CF911F910F91FF90EF90DF9045
:10117000CF90BF90AF909F908F9008958F929F9245
:10118000AF92BF92CF92DF92EF92FF920F931F9395
:10119000CF93DF935C016B014A01E90157FD52C017
:1011A000DC011A968D919C91481759070CF04AC0A2
:1011B000209709F447C037FF07C0C9010196C80E40
:1011C000D91ED195C195D109F50180859185C816A3
:1011D000D906C4F5A6014C0F5D1F9A0121503109B3
:1011E00037FD30C0D7FE03C0EA01D12CC12C28172F
:1011F00039071CF0EC01CC19DD09D501ED91FC910A
:101200000284F385E02DC5010995780101E010E025
:101210009E01A401B601C5010E94A207D501ED916E
:10122000FC910688F789E02DC501DF91CF911F91D0
:101230000F91FF90EF90DF90CF90BF90AF909F9075
:101240008F900994DF91CF911F910F91FF90EF90B4
:10125000DF90CF90BF90AF909F908F9008958F9226
:101260009F92AF92BF92CF92DF92EF92FF920F9335
:101270001F93CF93DF934C016B015A01E901209733
:1012800009F46CC00115110509F468C037FF07C0E7
:10129000C9010196C80ED91ED195C195D109F40195
:1012A000A085B185CA16DB060CF058C017FF07C031
:1012B000C8010196A80EB91E119501951109F401F6
:1012C00082859385A816B9060CF048C0F601EC0F8C
:1012D000FD1FAF014150510957FD40C0B501600FDE
:1012E000711F9B012150310937FD38C0D7FE03C063
:1012F000EF01D12CC12CB7FE03C08B01B12CA12C66
:101300004A175B071CF0ED01CC19DD0928173907D6
:101310001CF08C010A191B09D401ED91FC91028487
:10132000F385E02DC40109959E01A501B601C40114
:101330000E94A207D401ED91FC910688F789E02D67
:10134000C401DF91CF911F910F91FF90EF90DF903B
:10135000CF90BF90AF909F908F900994DF91CF91E5
:101360001F910F91FF90EF90DF90CF90BF90AF90C3
:101370009F908F900895EF92FF920F931F93CF93BA
:10138000DF9377FD32C0DC011896ED91FC916E176A
:101390007F075CF52115310541F137FF07C0F901E1
:1013A00031964E0F5F1F319521953109DC011A9658
:1013B000ED91FC914E175F07C4F4EA01C20FD31FF1
:1013C000DE011197B7FD11C057FF03C09E0150E029
:1013D00040E0AE17BF071CF09F01241B350B7801BE
:1013E000890121E030E00E94A207DF91CF911F9197
:1013F0000F91FF90EF9008952F923F924F925F923E
:101400006F927F928F929F92AF92BF92CF92DF9214
:10141000EF92FF920F931F93CF93DF93CDB7DEB779
:101420002C970FB6F894DEBF0FBECDBF3C017C8376
:101430006B835C874B871801270181E090E05C019A
:10144000A41AB50ACA01919581959109AC01440F7E
:10145000551F5A834983C80101969E838D83F12CC1
:10146000E12C88248394912C922F91709F83227079
:101470002887AB014F5F5F4F5A8749878B859C85D3
:10148000E816F9060CF07AC0CB84DC84B7FC0CC0FB
:101490006C0191E0C91AD10849815A814E5F5F4FB2
:1014A0005A834983A40EB51E5FEFE51AF50A82E060
:1014B000880E911CA80CB91CCE14DF0464F19F8126
:1014C000992399F09601220F331F4D815E81240FDD
:1014D000351F82014B815C814C195D09B701660D96
:1014E000771D8DE194E00E94BB095885552399F042
:1014F0009601220F331F8D819E81280F391F820193
:101500004B815C814C195D09B3016E197F098DE136
:1015100094E00E94BB094B855C854C155D0559F133
:101520005F81552391F0940122503109220D331D22
:10153000820149855A854E195F096B857C85660D48
:10154000771D8DE194E00E94BB098885882399F07E
:10155000940122503109220D331DB3014B855C8566
:10156000641B750B820149855A854E195F098DE10F
:1015700094E00E94BB09DC86CB8680CF2C960FB608
:10158000F894DEBF0FBECDBFDF91CF911F910F91B9
:10159000FF90EF90DF90CF90BF90AF909F908F9093
:1015A0007F906F905F904F903F902F900895EF92B3
:1015B000FF920F931F93CF93DF9357FD31C0DC0150
:1015C0001A96ED91FC914E175F0754F521153105E0
:1015D00039F137FF07C0F90131966E0F7F1F319542
:1015E00021953109DC011896ED91FC916E177F076A
:1015F000BCF4EB01C20FD31FDE011197B7FD10C081
:1016000077FF03C09E0170E060E0AE17BF071CF0DB
:101610009F01261B370B780101E010E00E94A20712
:10162000DF91CF911F910F91FF90EF9008958F92CE
:101630009F92AF92BF92CF92DF92EF92FF920F9361
:101640001F93CF93DF9347012115310509F44BC058
:101650000115110509F447C037FF07C0F90131969C
:101660006E0F7F1F319521953109DC011896AD90E1
:10167000BC906A157B05BCF517FF07C0F8013196D1
:101680004E0F5F1F119501951109DC011A96ED911E
:10169000FC914E175F073CF56B01C20ED31EE601AD
:1016A0002197D7FD20C07A01E00EF11ED7011197D6
:1016B000B7FD19C077FF03C0960170E060E057FFE7
:1016C00003C0870150E040E0CA15DB051CF095011E
:1016D000261B370BAE17BF071CF08F01041B150B21
:1016E00074010E94A207DF91CF911F910F91FF908B
:1016F000EF90DF90CF90BF90AF909F908F90089524
:10170000EF92FF920F931F93CF93DF93EC0177FD3E
:1017100022C08885998568177907ECF457FD1BC0AE
:101720008A859B8548175907B4F47901E881F981C6
:1017300002A4F3A5E02D01E010E021E030E0CE01AD
:101740000995B701CE01DF91CF911F910F91FF90C5
:10175000EF900C944C06DF91CF911F910F91FF9069
:10176000EF9008952F923F924F925F926F927F92E7
:101770008F929F92AF92BF92CF92DF92EF92FF92A1
:101780000F931F93CF93DF9300D000D0CDB7DEB778
:101790006C015B015C834B8381E090E04C01841A17
:1017A000950A2A01519441945108440C551CF12C7E
:1017B000E12C66246394712C422F44704983522F8C
:1017C00052705A83822F8870282E2170322E4B81BE
:1017D0005C81E416F5060CF083C097FC09C041500B
:1017E00051095C834B8352E0450E511C840C951CBF
:1017F0008FEFE81AF80A92E0690E711C860C971CAC
:1018000049814423C1F098014B815C814A0D5B1DE5
:10181000B6016E0D7F1D8DE194E00E94800B980152
:10182000A5014E0D5F1D6B817C816C0D7D1D8DE1D1
:1018300094E00E94800B5A815523C9F09801A501BC
:101840008B819C81481B590BB6016E0D7F1D8DE16C
:1018500094E00E94800B9801A5014E195F096B81ED
:101860007C816C0D7D1D8DE194E00E94800B222017
:10187000C9F09801A5014E0D5F1DB6018B819C81B9
:10188000681B790B8DE194E00E94800B98014B81DD
:101890005C814A0D5B1DB6016E197F098DE194E0F4
:1018A0000E94800B332009F492CF9801A5014E19B4
:1018B0005F09B6018B819C81681B790B8DE194E0F7
:1018C0000E94800B9801A5018B819C81481B590BBC
:1018D000B6016E197F098DE194E00E94800B77CFED
:1018E0000F900F900F900F90DF91CF911F910F915C
:1018F000FF90EF90DF90CF90BF90AF909F908F9030
:101900007F906F905F904F903F902F900895CF936E
:10191000DF93EC010E942C078FA987FD06C0EB8D99
:10192000FC8D80819AA989238083DF91CF910895CE
:101930000895AF92BF92CF92DF92EF92FF920F93F2
:101940001F93CF93DF93BC016F5F7F4FFC01149116
:10195000115008F47AC0FB01D4917B01F2E0EF0E44
:10196000F11CFB0131960491C02FCF778DE194E0FB
:101970000E942C078091540487FD09C0E09138042F
:10198000F0913904808190914F0489238083E09104
:101990003A04F0913B048081909151048923808323
:1019A0006D2F8DE194E00E948D06E0913A04F09154
:1019B0003B04808190915004892B8083F701B12CE6
:1019C000A12CD0E0AC16BD06F4F4809152046F0156
:1019D000823081F480914D04882361F0619171918E
:1019E0006F018DE194E00E944C06EFEFAE1ABE0A43
:1019F000F601E8CF8FEFC81AD80A64918DE194E020
:101A00000E948D06F2CF8091540487FD09C0E091B9
:101A10003804F0913904808190914E04892B8083A1
:101A2000B7016C0F7D1F07FF93CFEB012196FB01E0
:101A3000649170E06F3F710511F464EF71E090E024
:101A400080E00E941C05BE0183CFDF91CF911F91E2
:101A50000F91FF90EF90DF90CF90BF90AF900895DF
:101A60000F931F93CF93DF93EC018B010E942C0700
:101A70008FA987FD06C0EB8DFC8D80819AA98923F3
:101A80008083ED8DFE8D80819CA98923808366E310
:101A9000CE010E948D06ED8DFE8D80819BA9892B44
:101AA00080838DA9F801823091F06081CE010E947F
:101AB0008D068FA987FD06C0EB8DFC8D808199A9CD
:101AC000892B8083DF91CF911F910F91089588A971
:101AD000882359F360817181CE010E944C06E9CFC1
:101AE000CF93DF931F92CDB7DEB7FC0119826370ED
:101AF000668BDC01AD5BBF4F2C9130E011968C9171
:101B000090E0623031F06330C9F0613081F040EC38
:101B1000498332AF21AF94AF83AFBE016F5F7F4F78
:101B2000CF010E94300D0F90DF91CF91089540EAD0
:101B3000498334AF23AF92AF81AFEFCF40E6F8CF08
:101B4000CF93DF931F92CDB7DEB7FC01198263708C
:101B5000668BDC01AA5BBF4F8C91982F9B7FAF01F6
:101B60004C5B5F4F913031F493E0623008F091E0CC
:101B7000DA019C939F012D5B3F4F623009F44CC00A
:101B8000633009F459C0613069F1823021F098EC7A
:101B9000843009F046C090EC99838130D1F480E81C
:101BA00090E09387828791878087D9018C9190E01C
:101BB00092AF81AFDA018C9190E094AF83AFBE0118
:101BC0006F5F7F4FCF010E94300D0F90DF91CF915B
:101BD0000895843051F580EA90E09387828780E50C
:101BE00090E0E1CF823019F098EA843061F590EA14
:101BF0009983813091F580E890E091878087938781
:101C00008287D9018C9190E094AF83AFDA018C91F7
:101C100090E092AF81AFD3CF823039F08430D9F2E7
:101C200098E09983813009F4BACF80EA90E09387F5
:101C3000828780E890E0B7CF823019F098E6843050
:101C400011F490E6D5CF99838130A9F280EA90E033
:101C50009187808780E890E0D2CF8430B9F780EA1E
:101C600090E09187808780E590E0C9CFFC0187A94B
:101C700087FD06C0A38DB48D9C9181A9892B8C937F
:101C800008954F925F926F927F92AF92BF92CF92E0
:101C9000DF92EF92FF920F931F93CF93DF935C013C
:101CA0008DE194E00E94870CC12CD12C7601C4E117
:101CB000D0E094E1492E512C612C712CC701B60162
:101CC000A30192010E94692380E3C80ED11CE11C8C
:101CD000F11C2F5F3F4F8501AE016AE270E08DE19C
:101CE00094E00E94D70A2196C832D10539F7C12C59
:101CF000D12C7601C8E2D0E084E1482E512C612C31
:101D0000712CC701B601A30192010E94692380E3EF
:101D1000C81AD108E108F1082F5C3F4F8501AE01D8
:101D20006AE270E08DE194E00E94D70A2196CD33FB
:101D3000D10539F78DE194E0DF91CF911F910F919B
:101D4000FF90EF90DF90CF90BF90AF907F906F901B
:101D50005F904F900C94360E2F923F924F925F926D
:101D60006F927F928F929F92AF92BF92CF92DF92AB
:101D7000EF92FF920F931F93CF93DF9300D000D089
:101D8000CDB7DEB71C015B012A013C832B836801C0
:101D90008DE194E00E94870C3801660C771CC80125
:101DA000820D931D9A8389839201261937090B812D
:101DB0001C81A501BC018DE194E00E94170B8B8171
:101DC0009C818619970901979C838B83AC0CBD1C61
:101DD000420C531CC2018C199D090B811C8121E00E
:101DE000A601B50101970E94FC090B811C8122E02C
:101DF000A601B50189819A810E94FC098DE194E0D8
:101E00000F900F900F900F90DF91CF911F910F9136
:101E1000FF90EF90DF90CF90BF90AF909F908F900A
:101E20007F906F905F904F903F902F900C94360E64
:101E30000895FC016370668B8481958126813781CA
:101E4000613039F0633029F09187808733872287AA
:101E50000895318720879387828708952F923F9234
:101E60004F925F926F927F928F929F92AF92BF92AA
:101E7000CF92DF92EF92FF920F931F93CF93DF9356
:101E8000CDB7DEB76A970FB6F894DEBF0FBECDBFF1
:101E90009A8F898F7A8369834A01D22E18870F839C
:101EA0003701BC2CDC0159962D913C915A97211594
:101EB000310509F015C118968D919C9119976817F5
:101EC00079070CF0D7C11A968D919C914817590744
:101ED0000CF0D0C14C2C512CB6E0CB9E600D711D86
:101EE00011247C876B87161617060CF0C3C1EA2DE8
:101EF000F0E0FA87E98793E0EE0FFF1F9A95E1F78C
:101F0000F88BEF87CF01840F951F181619060CF078
:101F1000B1C1A98DBA8D58968C91811104C0BFEAC8
:101F2000BD1508F4D394A98DBA8DED91FC9111974C
:101F30000284F385E02DCD010995B5E0DB9EC0015B
:101F40001124E981FA81FC83EB83312C212C9C0143
:101F500028593F4F388F2F8B4A2D50E05E8B4D8B89
:101F6000EF89F88DE20DF31D44919E828D82D12C74
:101F7000C12C69817A81620D731D7A8B698B842FE4
:101F800090E09C8B8B8BE98DFA8DA081B18140FF15
:101F900082C0F1E0BF126FC0AF126DC01C96ED9110
:101FA000FC912F813885A4014C0D5D1D69897A89CA
:101FB000898D9A8D0995EB89FC89F595E7954E2FCA
:101FC0005FEFC51AD50A6D817E818D899E89680F64
:101FD000791F7E836D8398E0C916D10481F6AFEF37
:101FE0002A1A3A0AEB81FC81E40DF51DFC83EB8390
:101FF000F5E02F16310409F0B3CF2F81388526156F
:102000003705B9F0A98DBA8DED91FC91B1E0BB1205
:1020100057C0AB1255C069817A816B5F7F4F0088D2
:10202000F189E02D830128E030E0A401898D9A8DAB
:102030000995A98DBA8DED91FC9111970688F789C4
:10204000E02DCD016A960FB6F894DEBF0FBECDBF6E
:10205000DF91CF911F910F91FF90EF90DF90CF9084
:10206000BF90AF909F908F907F906F905F904F90B8
:102070003F902F9009941E96ED91FC91EF80F8848B
:1020800009851A8592014D815E816B817C81898DE4
:102090009A8D099590CF2F8138852615370509F43B
:1020A0008ACF31E0B31207C0A31205C01C96ED9190
:1020B000FC91930178CF1E96ED91FC917301E0CFD6
:1020C0006B857C85641975090684F785E02D73019D
:1020D0000F8518899201A401898D9A8D0995A9CF40
:1020E000F90134969491329745915491D91AB7E0F9
:1020F000DB9E400D511D1124F901259134913C8B3B
:102100002B8BFA0125903490FA0132967490319617
:102110003491398B329664903196449041E04C155D
:1021200018F04A1508F07FC0662D062C000C770BBE
:102130007C836B83842D042C000C990B9E838D83F0
:10214000A98DBA8DED91FC9111970284F385E02D54
:10215000CD010995512CD12CC12CEA2DF0E0FA8744
:10216000E9872B2D30E03C872B87A401440D511DBE
:1021700047FC5A95588F4F8B69817A81660D711D86
:1021800067FC7A957E876D877989C71608F051CFED
:102190002C2D30E04D815E81420F531FA985BA85F9
:1021A0004A9FC0014B9F900D5A9F900D1124FC0136
:1021B000E80DF91DF88BEF87852D612C4F89588D1F
:1021C000420F531F5E8B4D8B671408F050C04424A0
:1021D0004394480E877041F4C1010196EB89FC8954
:1021E000E20DF31DD4901C01D7FE19C0A98DBA8D44
:1021F000ED91FC91662D70E0B1E0BB1219C0AB12FD
:1022000017C02D853E85620F731F0484F585E02D70
:102210002F8138854D895E89898D9A8D0995DD0CD0
:102220006394842DD1CF1E821D821C821B8288CF95
:102230004B815C81640F751FAB85BC856A9FC001B3
:102240006B9F900D7A9F900D112469817A81680FA0
:10225000791F0684F785E02DEF80F88409851A85BB
:102260009D014F855889898D9A8D0995D8CF570C36
:10227000C3948ACF6A960FB6F894DEBF0FBECDBF67
:10228000DF91CF911F910F91FF90EF90DF90CF9052
:10229000BF90AF909F908F907F906F905F904F9086
:1022A0003F902F9008958F929F92AF92CF92EF928E
:1022B000FF920F931F93CF93DF93EC01262F898D0D
:1022C0009A8D009709F051C06A30D1F41D861C86A2
:1022D0008D8948E0849F900111248E859F85820F0F
:1022E000931F9F878E8781E090E0DF91CF911F91B0
:1022F0000F91FF90EF90CF90AF909F908F900895A7
:102300006D3089F3CC88AD888F898823C1F08C85A6
:102310009D8536E0C39E800D911D11244885598509
:102320004817590764F44E855F851D861C8638E082
:10233000A39EC0011124840F951F9F878E87EA8872
:10234000FB88088919894E855F856C857D85CE015E
:102350000E942E0F2C898C859D8546E0249F800D40
:10236000911D11249D878C87BECF6A3069F41D862C
:102370001C86FC013896E4912D898E859F85E29F0D
:10238000800D911D1124ADCF6D3009F4ACCFFC014F
:1023900034963491631708F4A6CF3296E491E61789
:1023A00008F4A1CFFC01329685909490462F431BF0
:1023B000342F47E0349F800C911C1124F401329695
:1023C00034913196E4913323A9F1EE2399F1CC882D
:1023D000F4013596E491AD884F89442301F10E2E26
:1023E000000CFF0BE30FF11DCE9EA001CF9E500D00
:1023F00011246C857D85460F571F68857985641784
:1024000075076CF44E855F851D861C86FC01389629
:10241000E491AE9E400D511D11245F874E87EA88DE
:10242000FB88088919894E855F856C857D85CE017D
:102430000E942E0FF4013496E4912C898C859D85A1
:10244000E29F800D911D11248DCF6F927F928F920C
:102450009F92AF92BF92CF92DF92EF92FF920F9333
:102460001F93CF93DF93EC016B015A0139014801AF
:10247000E881F9810284F385E02D0995E881F981ED
:102480000288F389E02D87019301A501B601CE01F1
:102490000995A501480D591D41505109E881F9815F
:1024A0000288F389E02D9301B601CE010995E881F8
:1024B000F9810088F189E02D9401A501B601CE01D2
:1024C0000995C60CD71CB60161507109E881F981E4
:1024D0000088F189E02D9401A501CE010995E881DC
:1024E000F9810688F789E02DCE01DF91CF911F9108
:1024F0000F91FF90EF90DF90CF90BF90AF909F90A3
:102500008F907F906F9009946F927F928F929F929D
:10251000AF92BF92CF92DF92EF92FF920F931F93F1
:10252000CF93DF935C01EB016A0149013801870118
:10253000DC01ED91FC916217730719F564167506BD
:102540002CF0962D872D3A01C92ED82E96012619EA
:1025500037092F5F3F4F048CF58DE02DA301BE019D
:10256000C5010995DF91CF911F910F91FF90EF90D9
:10257000DF90CF90BF90AF909F908F907F906F90A3
:1025800008954615570591F42617370724F0892D2D
:102590004B01C22FD82F9E01281939092F5F3F4FB9
:1025A000068CF78DE02DA601B401DACF0284F38505
:1025B000E02D0995D501ED91FC910488F589E02D78
:1025C00083019401A601BE01C5010995D501ED91D4
:1025D000FC910688F789E02DC501DF91CF911F910D
:1025E0000F91FF90EF90DF90CF90BF90AF909F90B2
:1025F0008F907F906F900994EF92FF920F931F93AB
:10260000DC011A960D911C911B9718962D913C9107
:102610001997ED91FC9100A0F1A1E02D7B0150E014
:1026200040E070E060E009951F910F91FF90EF90FE
:1026300008954F925F926F927F928F929F92AF9286
:10264000BF92CF92DF92EF92FF920F931F93CF939F
:10265000DF936C012B015A0139014801DC01ED9136
:10266000FC910284F385E02D0995E201640C751C50
:10267000D601ED91FC91C615D7055CF40088F1896F
:10268000E02D87019401A501BE01C601099521969F
:10269000EFCF0688F789E02DC601DF91CF911F911A
:1026A0000F91FF90EF90DF90CF90BF90AF909F90F1
:1026B0008F907F906F905F904F9009948F929F9230
:1026C000AF92BF92CF92DF92EF92FF920F931F9340
:1026D000CF93DF93EC015B014A016901E881F98145
:1026E0000284F385E02D099595012C0D3D1D2150A7
:1026F0003109E881F9810488F589E02D78018401A8
:10270000A401B501CE010995E881F9810688F78910
:10271000E02DCE01DF91CF911F910F91FF90EF90AF
:10272000DF90CF90BF90AF909F908F9009948F9241
:102730009F92AF92BF92CF92DF92EF92FF920F9350
:102740001F93CF93DF93EC015B014A01690178018C
:10275000E881F9810284F385E02D0995C80CD91C24
:10276000860101501109E881F9810488F589E02D7D
:102770009501A401B501CE010995E881F98106888A
:10278000F789E02DCE01DF91CF911F910F91FF903E
:10279000EF90DF90CF90BF90AF909F908F90099473
:1027A000EF92FF920F931F93DC01ED91FC9100A03B
:1027B000F1A1E02D09951F910F91FF90EF900895E1
:1027C0000F931F93DC01ED91FC91068CF78DE02DAA
:1027D00009951F910F9108950F931F93DC01ED91BF
:1027E000FC91048CF58DE02D09951F910F910895B2
:1027F000DC01ED91FC910084F185E02D09942F928C
:102800003F924F925F926F927F928F929F92AF9280
:10281000BF92CF92DF92EF92FF920F931F93CF93CD
:10282000DF9300D000D000D0CDB7DEB73C016A0105
:102830003E832D83FC82EB825801A41AB50AB7FEB1
:1028400003C0B194A194B1088D809E80861A970A26
:1028500097FE03C09194819491088A149B045CF0C4
:10286000902F812F0D811E819D838E839C2D8D2D18
:102870006B01692F782F0C151D055CF09D818E81F1
:102880007E836D83692F782F902F812F8601C92E2B
:10289000D82E1601201A310A2B012D813E81421AB1
:1028A000530A57FE03C0519441945108710137FEF9
:1028B00003C03FEFE31AF30AF594E7948D819E81FC
:1028C000861797075CF5A1E0B0E0BA83A983C0162C
:1028D000D1064CF1D301ED91FC910484F585E02DF6
:1028E0002B813C81A8016D817E818A149B041CF0A0
:1028F0004D815E81B801C3010995E418F508F7FE22
:102900000AC02D813E8189819A81280F391F3E831B
:102910002D83E20CF31C0F5F1F4FD9CF2FEF3FEF3A
:102920003A832983D4CF26960FB6F894DEBF0FBE24
:10293000CDBFDF91CF911F910F91FF90EF90DF906E
:10294000CF90BF90AF909F908F907F906F905F904F
:102950004F903F902F900895089590E080E0089563
:102960000E94AC23FB0101900020E9F73197AF01F1
:10297000461B570BDC01ED91FC910280F381E02DA9
:1029800009948F929F92AF92BF92EF92FF920F9312
:102990001F93CF93DF93CDB7DEB7A1970FB6F8940F
:1029A000DEBF0FBECDBF7C01FA01CB0119A22230E0
:1029B00008F42AE08E010F5D1F4F822E912CB12C5E
:1029C000A12CBF01A50194010E944723F901CA016E
:1029D0006A300CF5605DD8016E938D01232B242B9A
:1029E000252B79F790E080E0109721F0BD01C70119
:1029F0000E94B214A1960FB6F894DEBF0FBECDBFF1
:102A0000DF91CF911F910F91FF90EF90BF90AF900A
:102A10009F908F900895695CDECF8F929F92AF92C6
:102A2000BF92CF92DF92EF92FF921F93CF93DF93EB
:102A30006B017C01B42E20E030E0A9010E948221CC
:102A4000D0E0C0E087FF0AC06DE28DE194E00E9413
:102A50005311EC01F7FAF094F7F8F09410E060E00D
:102A600070E080E09FE31B1541F020E030E040E2A1
:102A700051E40E9487211F5FF6CFA70196010E94B3
:102A800016216B017C010E94F9214B015C012AE0B7
:102A9000BC01A4018DE194E00E94C114C80FD91FAC
:102AA0001123D1F1C501B4010E9428229B01AC0180
:102AB000C701B6010E9415216B017C016EE28DE118
:102AC00094E00E945311C80FD91F115028F120E043
:102AD00030E040E251E4C701B6010E94DA224B0126
:102AE0005C010E94F9216B01F12CE12C2AE0B70175
:102AF000A6018DE194E00E94C114C80FD91FC7013F
:102B0000B6010E9428229B01AC01C501B4010E94BC
:102B100015216B017C01D9CFCE01DF91CF911F919F
:102B2000FF90EF90DF90CF90BF90AF909F908F90ED
:102B300008950F931F93CF93DF93EC010E94B2147B
:102B40008C0162E471E0CE010E94B214800F911FEB
:102B5000DF91CF911F910F9108951F93CF93DF9332
:102B600085ED8093BC008091080390910903A091AA
:102B70000A03B0910B030796A11DB11D23E0B69582
:102B8000A795979587952A95D1F72091BC0024FDAC
:102B900003C01092500352C04091080350910903A2
:102BA00060910A0370910B03452B462B472B69F369
:102BB0000097A105B10541F02AE12A95F1F700C07F
:102BC0000197A109B109E1CF80910703C1E0C0934A
:102BD0000603882399F1D091B8001091BA00809132
:102BE000BC008A7B8093BC0060E082E10E947A0492
:102BF00060E083E10E947A0410925003C093520374
:102C00001092510361E082E10E947A0461E083E165
:102C10000E947A048091B9008E7F8093B9008091E0
:102C2000B9008D7F8093B90080E28093B80085E47D
:102C30008093BC001093BA00D093B800DF91CF917D
:102C40001F910895CF92DF92EF92FF920F931F93FF
:102C5000CF93DF93EC016A017B01C114D104E1043D
:102C6000F10439F4C12C48E4D42E48EEE42EFF24BC
:102C7000F394FE01FF96C082D182E282F38281E268
:102C80008DAF80E28EAF369610818FA987FD07C089
:102C900061E00E94C60461E08FA90E947A0461E0AD
:102CA00088AD0E94C60461E088AD0E947A048DA9B7
:102CB000811182C040E059E06DE370E0C416D50692
:102CC000E606F70640F476956795579547958F5F2A
:102CD0008630A1F787E0212F2C702065982F9695DC
:102CE000922B99A3809581708AA3812F90E0B0E008
:102CF000A0E08BA39CA3ADA3BEA31FB7F8948091C3
:102D00000403811127C0E4E4F6E08491E6E2F6E0F2
:102D10009491E82FF0E0EE0FFF1FE859FA4FA591CC
:102D2000B491EC91E92321F461E08AE00E947A04F5
:102D300061E08AE00E94C6048CB580618CBD8CB5D0
:102D400080648CBD61E08DE00E94C60461E08BE090
:102D50000E94C604809104038F5F809304031FBF09
:102D60008EA987FD75C061E00E94C60461E08EA94E
:102D70000E947A0464E670E080E090E00E941C0506
:102D800060E08EA90E947A0464E670E080E090E042
:102D90000E941C0561E08EA90E947A0468EC70E034
:102DA00080E090E0DF91CF911F910F91FF90EF9025
:102DB000DF90CF900C941C050AE316E0F12C8130D3
:102DC000B9F461E08AA50E94C60460E08AA50E9469
:102DD0007A0461E08CA50E94C60460E08CA50E9484
:102DE0007A048BA587FDBCCF60E00E94C604B8CFF3
:102DF000F8018491E82FF0E0EE0FFF1FE05DF94F3E
:102E0000859194912F8D38A12817390741F461E0FD
:102E10008F2D0E94C60460E08F2D0E947A04F394E7
:102E20000F5F1F4FF4E1FF12E3CF61E08EA50E9418
:102E3000C60461E08EA50E947A048FA587FD90CF1D
:102E400061E00E94C60461E08FA50E947A0488CFE9
:102E5000DF91CF911F910F91FF90EF90DF90CF9076
:102E600008951F920F920FB60F9211242F933F9344
:102E70004F935F936F937F938F939F93AF93BF9382
:102E8000EF93FF938FE793E00E94D003FF91EF91C0
:102E9000BF91AF919F918F917F916F915F914F9172
:102EA0003F912F910F900FBE0F901F9018951F927A
:102EB0000F920FB60F9211242F938F939F93EF933E
:102EC000FF93E0918F03F09190038081E09195034F
:102ED000F091960382FD1BC09081809198038F5FD3
:102EE0008F7320919903821741F0E0919803F0E0ED
:102EF000E158FC4F958F80939803FF91EF919F913C
:102F00008F912F910F900FBE0F901F901895808179
:102F1000F4CF1F920F920FB60F9211242F933F936D
:102F20008F939F93AF93BF9380917B0390917C038A
:102F3000A0917D03B0917E033091760326E0230FAC
:102F40002D3758F50296A11DB11D2093760380936D
:102F50007B0390937C03A0937D03B0937E038091C9
:102F6000770390917803A0917903B0917A03019649
:102F7000A11DB11D8093770390937803A0937903EB
:102F8000B0937A03BF91AF919F918F913F912F9111
:102F90000F900FBE0F901F90189529E8230F0396EE
:102FA000A11DB11DD2CF1F920F920FB60F92112407
:102FB0002F933F934F935F936F937F938F939F9341
:102FC000AF93BF93EF93FF938091B900887F8036D2
:102FD00009F44AC0F0F5883209F4A5C018F580312B
:102FE00009F499C0B8F4882309F4F5C0883009F4CD
:102FF00092C0FF91EF91BF91AF919F918F917F917F
:103000006F915F914F913F912F910F900FBE0F9055
:103010001F901895883109F486C0803251F780934B
:103020004F0314C0803409F49BC040F48033B9F3DB
:103030008833F9F680934F0385ECAEC0803509F4F0
:1030400083C0883509F494C0883499F60E94AD1580
:10305000D0CF883909F48AC038F5883729F050F480
:10306000883611F0803729F683E080935003109260
:103070004E0355C0883809F479C0803919F080387A
:1030800009F0B7CF80914E03803208F06FC0E09115
:103090004E0381E08E0F80934E038091BB00F0E0E1
:1030A000E25DFC4F80833BC0803B39F0D0F4803A36
:1030B00009F477C0883A09F09CCF84E080935003EC
:1030C00010922D0310922C03F0E0E0E0099580911E
:1030D0002C0381110FC081E080932C0310920C030C
:1030E00009C0803C09F4A8CF883C09F4A5CF883BEF
:1030F00009F07FCFE0912D0381E08E0F80932D03A7
:10310000F0E0E45FFC4F80818093BB0090912D0341
:1031100080912C0329C0809175038093BB0085ECBE
:103120008093BC0066CF90917403809173039817CD
:1031300058F5E091740381E08E0F80937403F0E002
:10314000ED5AFC4F8081E9CFE091740381E08E0F4E
:10315000809374038091BB00F0E0ED5AFC4F8083B4
:1031600090917403809173039817C8F285E8D8CFC3
:10317000E091740381E08E0F809374038091BB0013
:10318000F0E0ED5AFC4F80838091520381115ECFB5
:1031900081E08093510384EA8093BC001092500335
:1031A00028CF85EC8093BC001092500380914E0391
:1031B000803230F4E0914E03F0E0E25DFC4F10828B
:1031C00060914E0370E08EE293E0F0E0E0E009955C
:1031D00010924E030ECF10924F0338CFEFE7F3E07B
:1031E0001382128288EE93E0A0E0B0E0848395839E
:1031F000A683B78384E091E09183808385EC90E09F
:103200009587848784EC90E09787868780EC90E0B0
:10321000918B808B81EC90E0938B828B82EC90E0A1
:10322000958B848B86EC90E0978B868B118E128E1B
:10323000138E148EADE1B4E013961C921E92129779
:1032400020E830E015963C932E93149780EA90E0A6
:1032500017969C938E93169719963C932E931897D6
:103260001B969C938E931A9756961C9256971D9672
:103270001C921E921C971F961C921E921E9781E014
:1032800055968C93559754968C9354972FEF3FEF08
:1032900053963C932E93529751963C932E9350976E
:1032A00057968C93579758961C9258975A961C92FB
:1032B0001E925997D5961C92D59789E0D6968C93F5
:1032C000D6978AE0D7968C93D79788E0D8968C9338
:1032D000D897DA961C921E92D997DC961C921E9271
:1032E000DB97DD961C92DD97DE961C92DE9710929E
:1032F0005C0410925D0410925E0410925F048CE1F5
:1033000094E090969C938E935F97E2E4F6E0E491CC
:10331000F0E0EE0FFF1FE05DF94F859194915E960E
:103320009C938E935D97E4E2F6E08491D3968C9320
:10333000D397E4E4F6E0E491F0E0EE0FFF1FE05DE8
:10334000F94F259134915C963C932E935B97E6E27E
:10335000F6E0E491D196EC93D197E095D296EC9378
:10336000D297E82FE095D496EC93D497109260040E
:10337000109261041092620486E191E08D939C9317
:103380000895CF93DF93CDB7DEB72B970FB6F894A0
:10339000DEBF0FBECDBF789484B5826084BD84B596
:1033A000816084BD85B5826085BD85B5816085BD40
:1033B00080916E00816080936E00109281008091F8
:1033C0008100826080938100809181008160809380
:1033D0008100809180008160809380008091B100A5
:1033E00084608093B1008091B00081608093B000D0
:1033F00080917A00846080937A0080917A00826064
:1034000080937A0080917A008E7F80937A008091F9
:103410007A00806880937A001092C100E0918F0357
:10342000F0919003A2E0EA2EE082E0918B03F0910C
:103430008C031082E0918D03F0918E0387E68083E8
:1034400010929703E0919303F091940386E08083B8
:10345000E0919103F0919203808180618083E091FB
:103460009103F0919203808188608083E0919103C1
:10347000F0919203808180688083E0919103F091C4
:10348000920380818F7D808385E096E00E943F04D7
:1034900040E050E0BA018DE194E00E9422168EEBEC
:1034A00095E00E94990C81EB95E00E94990C86E8CA
:1034B00095E00E94990C80EC8983BE016F5F7F4F7D
:1034C0008DE194E00E94300DE092630460E08DE1B4
:1034D00094E00E94A00D89EF95E00E943F0462E411
:1034E00071E08FE793E00E94B2148FB7F894809058
:1034F0007B0390907C03A0907D03B0907E038FBFF0
:1035000070E060E08DE194E00E94FC128FB7F894C7
:1035100040917B0350917C0360917D0370917E0309
:103520008FBF4819590970E060E02AE08FE793E007
:103530000E94C11462E471E08FE793E00E94B2142C
:1035400064EF71E080E090E00E941C0570E060E0B4
:103550008DE194E00E94FC1210922A04109229043A
:1035600010922C0410922B040FEF1FEF10933004D5
:1035700000932F0410932E0400932D04FF24F39442
:10358000F092340465E471E08DE194E00E94B2149D
:1035900068EE73E080E090E00E941C051092340415
:1035A00070E060E08DE194E00E94FC1210922A0429
:1035B000109229048EE190E090932C0480932B04C8
:1035C00080E098EF9093300480932F0490932E0422
:1035D00080932D04F0923104F092320463EB72E098
:1035E0008DE194E00E94991580EE9FEF9093300456
:1035F00080932F0490932E0480932D04E092310445
:10360000E092320463EB72E08DE194E00E94991540
:10361000B0EECB2EB7E0DB2ED0923004C0922F0458
:10362000D0922E04C0922D0483E0809331048093C5
:10363000320463EB72E08DE194E00E9499158FE112
:1036400090E09093300480932F0490932E04809305
:103650002D0484E0809331048093320442E065E2DB
:1036600072E58AE994E40E940D156CED75E080E046
:1036700090E00E941C0510922A04109229041092D6
:103680002C0410922B0470E060E08DE194E00E9425
:10369000FC121093300400932F0410932E04009317
:1036A0002D04F0923104F092320463EB72E08DE16C
:1036B00094E00E949915F0923104F0923204D09275
:1036C0003004C0922F04D0922E04C0922D0446E004
:1036D0006AED7FE089E490E40E940D1560EC72E0F1
:1036E0008DE194E00E94991561EB72E08DE194E028
:1036F0000E94991520E14DEE5FE564E870E08DE1F0
:1037000094E00E94C1146AEC72E08DE194E00E94A2
:10371000991561EB72E08DE194E00E949915109388
:10372000300400932F0410932E0400932D0466EDB3
:1037300072E08DE194E00E94991566EE72E08DE1F1
:1037400094E00E9499158FE198EF90933004809354
:103750002F0490932E0480932D042FB7F89460913A
:103760007B0370917C0380917D0390917E032FBF3A
:1037700028EE33E040E050E00E944723BA01A9015F
:103780002AE08DE194E00E94C1141093300400936C
:103790002F0410932E0400932D0464EF72E08DE14A
:1037A00094E00E94B21460EA7FE080E090E00E9422
:1037B0001C05409127045091280457FF02C04F5F19
:1037C0005F4F55954795609125047091260477FFCA
:1037D00002C06F5F7F4F7595679520EE37E08DE1F2
:1037E00094E00E94520764EF71E080E090E00E9454
:1037F0001C0570E060E08DE194E00E94FC12D12C89
:10380000C12C0091270410912804809125049091E7
:103810002604C816D906C4F40150110950EEE52E4D
:10382000FF24FA94960150E040E070E060E08DE102
:1038300094E00E94841260E070E0CB010E941C05BD
:1038400026E0C20ED11CDDCFD12CC12C80912704E3
:1038500090912804C816D906E4F4209125043091EB
:1038600026042150310940EEE42EFF24FA9486010B
:1038700050E040E070E060E08DE194E00E9484124E
:1038800060E070E0CB010E941C0536E0C30ED11C45
:10389000DDCF70E060E08DE194E00E94FC12D12C5D
:1038A000C12C609125047091260400912704109189
:1038B0002804C616D706C4F40150110961507109D5
:1038C00030EEE32EFF24FA94960150E040E08DE1C3
:1038D00094E00E94841260E070E0CB010E941C051D
:1038E00046E0C40ED11CDDCFD12CC12C8091270421
:1038F00090912804C816D906E4F4609125047091CB
:1039000026046150710920EEE22EFF24FA9486010C
:1039100030E020E050E040E08DE194E00E9484122D
:1039200060E070E0CB010E941C0556E0C50ED11C82
:10393000DDCF70E060E08DE194E00E94FC12D12CBC
:10394000C12C409127045091280480912504909126
:103950002604C816D906C4F44150510990EEE92E48
:10396000FF24FA9410E000E0960170E060E08DE141
:1039700094E00E94841260E070E0CB010E941C057C
:1039800086E0C80ED11CDDCFD12CC12C409127047C
:1039900050912804C416D506E4F4209125043091F2
:1039A0002604215031094150510980EEE82EFF24B0
:1039B000FA94860170E060E08DE194E00E94841248
:1039C00060E070E0CB010E941C0596E0C90ED11C9E
:1039D000DDCF70E060E08DE194E00E94FC12D12C1C
:1039E000C12C6091250470912604409127045091C8
:1039F0002804C616D706C4F4415051096150710914
:103A000000EEE02EFF24FA9410E000E096018DE134
:103A100094E00E94841260E070E0CB010E941C05DB
:103A200026E0C20ED11CDDCFD12CC12C4091270441
:103A300050912804C416D506E4F441505109609110
:103A40002504709126046150710910EEE12EFF24C7
:103A5000FA94860130E020E08DE194E00E94841227
:103A600060E070E0CB010E941C0536E0C30ED11C63
:103A7000DDCF64EF71E080E090E00E941C0570E013
:103A800060E08DE194E00E94FC12F12CE12C209189
:103A90002504309126048091270490912804E8168B
:103AA000F9066CF400E018EFA70170E060E08DE12A
:103AB00094E00E94BE0845E0E40EF11CE8CFF12C32
:103AC000E12C8091250490912604E816F9068CF4E7
:103AD00020912704309128040FE110E050E040E0ED
:103AE000B7018DE194E00E944D0855E0E50EF11C10
:103AF000E8CF64EF71E080E090E00E941C0570E088
:103B000060E08DE194E00E94FC12D12CC12C8091E8
:103B1000250490912604C816D90644F5B601D7FEAF
:103B200002C06F5F7F4F75956795719561957109BB
:103B3000409127045091280457FF02C04F5F5F4F08
:103B400055954795460F571F95958795680F791F8F
:103B5000A0EEEA2EA7E0FA2E860196018DE194E010
:103B60000E94251286E0C80ED11CD1CF64EF71E00F
:103B700080E090E00E941C0570E060E08DE194E040
:103B80000E94FC12C0902504D090260491E0C91A2E
:103B9000D10827E0C216D1040CF453C05601D7FE59
:103BA00003C03FEFA31AB30AB594A794B194A194AC
:103BB000B108409127045091280457FF02C04F5F7D
:103BC0005F4F559547954A0D5B1D60912504709197
:103BD000260477FF02C06F5F7F4F759567956A0D6A
:103BE0007B1D30EEE32EFF24FA94860196018DE1D1
:103BF00094E00E942F09409127045091280457FF18
:103C000002C04F5F5F4F559547954A0D5B1D609110
:103C100025047091260477FF02C06F5F7F4F759572
:103C200067956A0D7B1D8FE1E82E88EFF82E8601DF
:103C300096018DE194E00E94251246E0C41AD10855
:103C4000A8CF64EF71E080E090E00E941C0570E076
:103C500060E08DE194E00E94FC121AE0C12ED12CAC
:103C60008091250490912604C816D90694F5BAE0EF
:103C7000AB2EB12C8091270490912804A816B90688
:103C800024F58DE194E00E94870CA5014A5051096A
:103C90000FE110E025E130E0B6018DE194E00E94F3
:103CA000BB09AFE1EA2EF12C10E000E023E04AE08E
:103CB00050E0B501C6010E94FC098DE194E00E942C
:103CC000360E54E1A50EB11CD5CF84E1C80ED11C2F
:103CD000C7CF26EF3FEF3B872A874AE050E059875E
:103CE0004887B12CA12C80912504909126040A9636
:103CF000A816B9060CF0CEC0D12CC12C8091270497
:103D0000909128040A96C816D9060CF0B4C08DE12B
:103D100094E00E94870C2FEF3FEFA601465F5F4FB4
:103D2000B5018DE194E00E94800B2FEF3FEFA601DB
:103D30004A505109B5018DE194E00E94800B2FEFAC
:103D40003FEFA601688579858DE194E00E94800BA4
:103D50002FEF3FEFA6016A857B858DE194E00E94FD
:103D6000800B912C812C81E090E09B838A830AE078
:103D700010E02CEE3FEF3F832E83F7EF4F2E5524BC
:103D80005A945FEF851A950A8A819B8102969B83DC
:103D90008A83480E591E14012A0C3B1C2FEF3FEF5B
:103DA0003601600E711EA301B1018DE194E00E9405
:103DB000800B7501E818F9082FEF3FEFA301B70159
:103DC0008DE194E00E94800B2FEF3FEF3601601AE7
:103DD000710AA301B1018DE194E00E94800B2FEFE5
:103DE0003FEFA301B7018DE194E00E94800B7401C5
:103DF000EC0CFD1C2FEF3FEFA7011501200E311E2B
:103E0000B1018DE194E00E94800B2FEF3FEFA701FD
:103E10007501E01AF10AB7018DE194E00E94800B70
:103E20003601681879082FEF3FEFA301B1018DE14A
:103E300094E00E94800B2FEF3FEFA301B7018DE1CB
:103E400094E00E94800B8016910644F08DE194E08E
:103E50000E94360E94E1C90ED11C50CF57FC91CF71
:103E6000015011094E815F814E5F5F4F5F834E832A
:103E7000440E551E86CF24E1A20EB11C48855985FB
:103E80004C5E5F4F598748878A859B8544969B8700
:103E90008A8729CF64EF71E080E090E00E941C05E2
:103EA00070E060E08DE194E00E94FC1224E630E0D6
:103EB0003987288780912504909126045C0132E09F
:103EC000A31AB1082091270430912804290142E067
:103ED000441A5108A901435051095B874A879C0144
:103EE000235031093B832A83C884D9841F821E82D0
:103EF000312C212CA414B5040CF090C17501B7FE2F
:103F000003C03FEFE31AF30AF594E79455E0E51692
:103F1000F1041CF075E0E72EF12C8DE194E00E9495
:103F2000870C4701880C991C350168187908C10174
:103F30008E0D9F1D9D838C83860193014E815F8131
:103F4000BC018DE194E00E94D70A93014A855B850C
:103F50006C817D818DE194E00E94D70A320168185E
:103F600079088E809F808E0C9F1C9301A401B10163
:103F70008DE194E00E94BB099301A4016A817B81D9
:103F80008DE194E00E94BB0921E0A701B4018C817E
:103F90009D810E94B20B6A807B806E187F0822E0B0
:103FA000A701B401C3010E94B20B8A849B848E18BE
:103FB0009F0824E0A701B401C3010E94B20B28E0CE
:103FC000A701B4018C819D810E94B20B8DE194E028
:103FD0000E94360E92E0290E311C2E813F812D5F0A
:103FE0003F4F3F832E8334E0A31AB10846E0441AC2
:103FF000510854EBC51A5BEFD50A8A859B85039758
:104000009B878A872A813B81225031093B832A83FF
:1040100032E22316310409F06DCF488559854059A5
:10402000564B5987488744395F4609F043CF64EFC0
:1040300071E080E090E00E941C0570E060E08DE19E
:1040400094E00E94FC122090250430902604C101C7
:1040500037FC01969C01359527953B832A838090F8
:10406000270490902804412C58EF552ED12CC12CB8
:1040700031E0831A910831016C187D085401AC18A5
:10408000BD08720185019601A6016A817B818DE1DF
:1040900094E00E9484129301A501B6018DE194E0A1
:1040A0000E94841286012A813B81A501B3018DE122
:1040B00094E00E94841244E0C40ED11C54E6450EE4
:1040C000511C80E448168EEF5806A9F664EF71E0A3
:1040D00080E090E00E941C0570E060E08DE194E0DB
:1040E0000E94FC12EE24EA94FE2C08E010E02CE37F
:1040F00030E04EE450E06AE070E089E190E00E9438
:10410000AC0E80E098EF0E94410E64EF71E080E019
:1041100090E00E941C052CE330E04EE450E06AE59C
:1041200070E089E190E00E94AC0E90EEE92E97E0FD
:10413000F92E05E010E02DE230E044E150E062E6C7
:1041400070E087E290E00E94AC0E2DE230E044E1A6
:1041500050E062E670E085E490E00E94AC0E64EF0F
:1041600071E080E090E00E941C058FE190E00E94E9
:10417000410E62E370E080E090E00E941C05E12CBB
:1041800028EFF22E2DE230E044E150E062E670E0EC
:1041900087E290E00E94AC0E2DE230E044E150E076
:1041A00062E670E085E490E00E94AC0E80EE97E05D
:1041B0000E94410E64EF71E080E090E00E941C05D7
:1041C0006EEF72E08FE793E00E94991568EE73E05E
:1041D00080E090E00E941C0500E010E061E08DE1CD
:1041E00094E00E94350764EF71E080E090E00E9467
:1041F0001C0560E08DE194E00E94350764EF71E0FA
:1042000080E090E00E941C050115110539F30E9421
:10421000BC03882319F30E940000E0CF720157FE0F
:1042200073CE4FEFE41AF40A6FCE5058BB27AA277B
:104230000E942D210C94A0220E94922238F00E940C
:10424000992220F039F49F3F19F426F40C948F2220
:104250000EF4E095E7FB0C948922E92F0E94B1222D
:1042600058F3BA17620773078407950720F079F4AB
:10427000A6F50C94D3220EF4E0950B2EBA2FA02DA8
:104280000B01B90190010C01CA01A0011124FF2703
:10429000591B99F0593F50F4503E68F11A16F040FE
:1042A000A22F232F342F4427585FF3CF46953795FD
:1042B0002795A795F0405395C9F77EF41F16BA0BC2
:1042C000620B730B840BBAF09150A1F0FF0FBB1F70
:1042D000661F771F881FC2F70EC0BA0F621F731FB9
:1042E000841F48F4879577956795B795F7959E3F16
:1042F00008F0B0CF9395880F08F09927EE0F9795A7
:10430000879508950E94652208F481E008950E942F
:104310009B210C94A0220E94992258F00E94922284
:1043200040F029F45F3F29F00C94892251110C943C
:10433000D4220C948F220E94B12268F39923B1F306
:10434000552391F3951B550BBB27AA2762177307BB
:10435000840738F09F5F5F4F220F331F441FAA1F4F
:10436000A9F335D00E2E3AF0E0E832D0915050400B
:10437000E695001CCAF72BD0FE2F29D0660F771FB9
:10438000881FBB1F261737074807AB07B0E809F09F
:10439000BB0B802DBF01FF2793585F4F3AF09E3F24
:1043A000510578F00C9489220C94D4225F3FE4F3F9
:1043B000983ED4F3869577956795B795F7959F5F67
:1043C000C9F7880F911D9695879597F90895E1E0B3
:1043D000660F771F881FBB1F621773078407BA0712
:1043E00020F0621B730B840BBA0BEE1F88F7E0956D
:1043F00008950E94B92288F09F5798F0B92F992705
:10440000B751B0F0E1F0660F771F881F991F1AF0BF
:10441000BA95C9F714C0B13091F00E94D322B1E02F
:1044200008950C94D322672F782F8827B85F39F02E
:10443000B93FCCF3869577956795B395D9F73EF458
:1044400090958095709561957F4F8F4F9F4F089500
:10445000E89409C097FB3EF490958095709561951E
:104460007F4F8F4F9F4F9923A9F0F92F96E9BB27D4
:104470009395F695879577956795B795F111F8CF50
:10448000FAF4BB0F11F460FF1BC06F5F7F4F8F4FBB
:104490009F4F16C0882311F096E911C0772321F0B1
:1044A0009EE8872F762F05C0662371F096E8862F49
:1044B00070E060E02AF09A95660F771F881FDAF7A0
:1044C000880F9695879597F90895990F0008550FCD
:1044D000AA0BE0E8FEEF16161706E807F907C0F08A
:1044E00012161306E407F50798F0621B730B840B92
:1044F000950B39F40A2661F0232B242B252B21F46C
:1045000008950A2609F4A140A6958FEF811D811D0B
:10451000089597F99F6780E870E060E008959FEF45
:1045200080EC089500240A9416161706180609064A
:10453000089500240A941216130614060506089519
:10454000092E0394000C11F4882352F0BB0F40F4A1
:10455000BF2B11F460FF04C06F5F7F4F8F4F9F4FE1
:10456000089557FD9058440F551F59F05F3F71F063
:104570004795880F97FB991F61F09F3F79F08795CA
:104580000895121613061406551FF2CF4695F1DF53
:1045900008C0161617061806991FF1CF86957105E3
:1045A000610508940895E894BB2766277727CB0117
:1045B00097F908950E94ED220C94A0220E94922265
:1045C00038F00E94992220F0952311F00C94892252
:1045D0000C948F2211240C94D4220E94B12270F3E7
:1045E000959FC1F3950F50E0551F629FF001729F98
:1045F000BB27F00DB11D639FAA27F00DB11DAA1FA7
:10460000649F6627B00DA11D661F829F2227B00DF3
:10461000A11D621F739FB00DA11D621F839FA00D7E
:10462000611D221F749F3327A00D611D231F849FCE
:10463000600D211D822F762F6A2F11249F57504025
:104640009AF0F1F088234AF0EE0FFF1FBB1F661FA0
:10465000771F881F91505040A9F79E3F510580F069
:104660000C9489220C94D4225F3FE4F3983ED4F357
:10467000869577956795B795F795E7959F5FC1F70D
:10468000FE2B880F911D9695879597F90895A1E2C5
:104690001A2EAA1BBB1BFD010DC0AA1FBB1FEE1FBC
:1046A000FF1FA217B307E407F50720F0A21BB30B07
:1046B000E40BF50B661F771F881F991F1A9469F783
:1046C00060957095809590959B01AC01BD01CF01DF
:1046D0000895052E97FB1EF400940E94802357FD39
:1046E00007D00E94472307FC03D04EF40C9480238C
:1046F00050954095309521953F4F4F4F5F4F08950E
:1047000090958095709561957F4F8F4F9F4F08953D
:104710000E949023332312F48A1B9B0B0C94A12339
:10472000A29FB001B39FC001A39F700D811D1124F2
:10473000911DB29F700D811D1124911D08950E943D
:104740009023B7FF0895821B930B0895EE0FFF1F70
:104750000590F491E02D099481E090E0F8940C9498
:06476000B123F894FFCF25
:1047660000000000F20352037F035A04B0038E03D5
:10477600A2030000000053115203AD14AC145207FB
:10478600870C800B170BBB09D70AFF13360EA00D3B
:1047960035074D08BE082F09FC1284122512221671
:1047A600D3060D0A004C6F72656D20697073756DC6
:1047B60020646F6C6F722073697420616D65742C50
:1047C60020636F6E736563746574757220616469C6
:1047D60070697363696E6720656C69742E20437512
:1047E6007261626974757220616469706973636964
:1047F6006E6720616E746520736564206E696268F9
:104806002074696E636964756E7420666575676980
:1048160061742E204D616563656E617320656E69F6
:104826006D206D617373612C206672696E67696CA9
:104836006C6120736564206D616C6573756164617C
:104846002065742C206D616C6573756164612073DD
:10485600697420616D6574207475727069732E2099
:1048660053656420706F72747469746F72206E651C
:1048760071756520757420616E746520707265743B
:1048860069756D207669746165206D616C657375F7
:10489600616461206E756E6320626962656E64751F
:1048A6006D2E204E756C6C616D20616C697175653D
:1048B6007420756C747269636573206D61737361BE
:1048C6002065752068656E6472657269742E205560
:1048D6007420736564206E697369206C6F72656DF0
:1048E6002E20496E20766573746962756C756D202D
:1048F6007075727573206120746F72746F7220699F
:104906006D7065726469657420706F737565726524
:104916002E200048656C6C6F20576F726C64210006
:104926002057616E742070693F00205072696E7462
:10493600204845582100536B65746368206861738D
:10494600206265656E0072756E6E696E6720666FB1
:10495600723A2000207365636F6E64732E00646F75
:044966006E6500007A
:00000001FF
